:100000000C9434000C9451000C9451000C94510049
:100010000C9459030C94F3000C9451000C9451006F
:100020000C9451000C9451000C9451000C94CB0092
:100030000C9451000C9451000C946D040C945100DC
:100040000C9451000C9451000C9451000C945100EC
:100050000C9451000C9451000C9451000C945100DC
:100060000C9451000C94510011241FBECFEFD8E026
:10007000DEBFCDBF11E0A0E0B1E0EEE8F4E102C0E8
:1000800005900D92AE34B107D9F721E0AEE4B1E0AE
:1000900001C01D92A536B207E1F70E94BE040C9480
:1000A000450A0C9400002C9A439AE8E6F0E080811F
:1000B00084608083EDE6F0E080818860808308952D
:1000C000239A3C9A0895A1EBB0E08C91877F8C93A2
:1000D000E0EBF0E08081836080838C9184608C937E
:1000E0008C918C7F8C9380818068808380818F7BD2
:1000F000808380E88093B30008951C9904C01C9B02
:10010000FECF81E0089580E00895E1E8F0E080818D
:1001100088608083EFE6F0E08081826080838FE3F7
:1001200095EB9093890080938800089560915E011B
:1001300070915F0180916001909161010E94300691
:1001400020E030E040E05FE30E94BE0620E030E0C7
:1001500040E251E40E94BE0620E030E048E652E46E
:100160000E9488050E94FA0570935C0160935B0110
:1001700060915B0170915C01072E000C880B990B5C
:100180000895529A5A9808955A9A85E38A95F1F7F4
:1001900000005A9808951F920F920FB60F921124E3
:1001A0008F939F93EF93FF93E1E8F0E080818D7F41
:1001B000808381E080935D0110925E0110925F0167
:1001C000109260011092610181E090E090935001E3
:1001D00080934F01FF91EF919F918F910F900FBEF0
:1001E0000F901F9018951F920F920FB60F92112427
:1001F0008F939F93AF93BF9389B1887080934E0183
:100200004B9B19C010928500109284008091810050
:1002100082608093810081E08093510110925001AF
:1002200010924F01BF91AF919F918F910F900FBE90
:100230000F901F901895809181008D7F8093810091
:10024000109251018091840090918500B0E0A0E06F
:1002500080935E0190935F01A0936001B093610170
:1002600081E090E09093500180934F01DBCF9BB1F0
:100270009F709BB99BB1807F892B8BB9299A299A52
:1002800029980895CF93C82F28980E9437018C2F62
:100290008295807F0E9437018FE39FE10197F1F7FC
:1002A00000C00000CF910895811104C080E8860F3E
:1002B0000C94420180ECFBCF8AB1806F8AB984B183
:1002C000836084B98FE59AEE0197F1F700C00000D2
:1002D00080E30E9437018FE19EE40197F1F700C0AF
:1002E000000080E30E9437018FED91E00197F1F764
:1002F00000C0000080E30E94370180E20E943701C5
:100300008FE39FE10197F1F700C0000088E20E94AF
:1003100042018FE00C944201CF93C82F289A0E948B
:1003200037018C2F8295807F0E9437018FE39FE1F8
:100330000197F1F700C00000CF910895CF93DF93AC
:10034000EC018991811103C0DF91CF9108950E9442
:100350008C01F7CFCF93DF93CDB7DEB760970FB6A1
:10036000F894DEBF0FBECDBF6DE171E0CE010996FE
:100370000E942B0780E80E944201CE0109960E944C
:100380009E0164E271E0CE0101960E942B0780EC91
:100390000E944201CE0101960E949E0160960FB616
:1003A000F894DEBF0FBECDBFDF91CF910895CF93FC
:1003B000DF93CDB7DEB7A1970FB6F894DEBF0FBEBF
:1003C000CDBF81E00E9442016BE271E0CE01019657
:1003D0000E942B0780EC0E944201CE0101960E94F0
:1003E0009E0180E80E9442016AE371E0CE014296DC
:1003F0000E942B07CE0142960E949E012FEF83EDB3
:1004000090E3215080409040E1F700C0000081E07F
:100410000E944201A1960FB6F894DEBF0FBECDBF79
:10042000DF91CF91089580910601909107010E947C
:10043000E00990930301809302018091040190915F
:1004400005010E94E0099093010180930001089545
:10045000EF92FF920F931F93CF93DF930E9496002A
:10046000E0900201F0900301C0910001D0910101E0
:1004700000910201109103012AE030E040E050E0D9
:100480000E944C05C701FF0CAA0BBB0B281B390BA4
:100490004A0B5B0BAFEFB0E00E946E059E01201B84
:1004A000310B032E000C440B550B0E944C0520937E
:1004B0005601809156018093B300DF91CF911F9137
:1004C0000F91FF90EF900895CF93DF930E949600D5
:1004D000C0910201D09103012AE030E040E050E0F9
:1004E0000E944C05CE01DD0FAA0BBB0B2817390764
:1004F0004A075B0720F4DF91CF910C94B604DF919B
:10050000CF91089588B1866088B9439A8091680038
:1005100082608093680080916C00866080936C009C
:100520008091620181110BC080916401811107C02B
:100530001092550180915501809354010895809146
:100540006201811108C080916401882321F081E05B
:1005500080935501EFCF80916201882331F0809123
:100560006401811102C082E0F3CF83E0F1CF86B154
:10057000982F927090936401847080936201089523
:1005800080916301811106C065E070E090E080E039
:100590000E94540180916301813031F465E070E084
:1005A00081E090E00C9454010895CF9333990CC0EE
:1005B000339BFECF809163018095809363010E94FD
:1005C000C0028C2FCF910895C0E0FBCFDF92EF9255
:1005D000FF920F931F93CF93DF93CDB7DEB72C9786
:1005E0000FB6F894DEBF0FBECDBF0E94D50265E006
:1005F00070E090E080E00E945401809102019091AF
:1006000003019F938F9309E411E01F930F931F92AF
:1006100086E0D82EDF927E0187E0E80EF11CFF9283
:10062000EF920E943207C7010E949E016091020171
:100630007091030180910601909107010E94E609E3
:100640000E94D50265E070E081E090E00E945401D4
:1006500080910001909101019F938F931F930F93BD
:100660001F92DF928E010F5F1F4F1F930F930E9407
:100670003207C8010E949E01609100017091010142
:1006800080910401909105010E94E6090FB6F8944B
:10069000DEBF0FBECDBF2C960FB6F894DEBF0FBEE7
:1006A000CDBFDF91CF911F910F91FF90EF90DF9021
:1006B00008951F920F920FB60F9211242F933F931C
:1006C0004F935F936F937F938F939F93AF93BF935A
:1006D000EF93FF930E94B70280915501811111C0E1
:1006E00080916401882321F081E08093540135C01A
:1006F00080916201882309F46CC082E080935401E8
:100700000AC0809155018130B9F480916401811152
:100710000CC010925401809163018111CCC0809172
:10072000020190910301019721C080916201882309
:1007300009F44FC083E0D9CF80915501823009F090
:1007400069C080916401882311F083E0D7CF809144
:10075000620181113EC010925401809163018111A8
:100760005FC0809102019091030101969093030173
:100770008093020180910201909103012091000178
:10078000309101010596821793074CF0809100018A
:10079000909101010597909303018093020180914C
:1007A0000201909103018139914034F080E991E098
:1007B00090930301809302018091020190910301C3
:1007C0001816190634F081E090E0909303018093AD
:1007D00002019091540180915501981751F081E0E8
:1007E00090E0909353018093520180915401809343
:1007F0005501FF91EF91BF91AF919F918F917F91A3
:100800006F915F914F913F912F910F900FBE0F907D
:100810001F9018958091640181113CC082E065CFE2
:1008200080910001909101010196909301018093C4
:10083000000180910201909103012091000130910B
:1008400001010596821793074CF080910201909167
:1008500003010596909301018093000180910001AE
:10086000909101018139914034F080E991E09093B9
:1008700001018093000180910001909101011816FF
:1008800019060CF4A6CF81E090E0909301018093CB
:1008900000019FCF8091620181119BCF81E0809305
:1008A000540180916301882309F439CF8091630159
:1008B000813009F08ECF8091000190910101019764
:1008C000B4CF3D9A84B5816084BDEEE6F0E08081CE
:1008D0008260808387E487BD08951F920F920FB6D0
:1008E0000F9211244F935F936F937F938F939F93F6
:1008F000AF93BF9380915A01811134C0459A81E032
:1009000080935A01809158019091590101969093DA
:10091000590180935801809158019091590140915B
:100920000A0150910B0160910C0170910D01092E8B
:10093000000CAA0BBB0B84179507A607B70729F471
:1009400085B58D7F85BD16BC4598BF91AF919F91B0
:100950008F917F916F915F914F910F900FBE0F908C
:100960001F901895459810925A01CCCF10925901BA
:100970001092580185B5826085BD0895CF93DF93AD
:10098000CDB7DEB761970FB6F894DEBF0FBECDBF0F
:100990000E945C010E9485000E94630078940E947E
:1009A000D7010E9482020E9413020E9460000E94EE
:1009B000AA010E9453000E9461040E94C1008E019E
:1009C0000F5F1F4F8AE0C82ED12CE12CF12C9EE046
:1009D000292E91E0392E0E94E6020E947D00882394
:1009E00021F010925D010E94C40080914F0190910E
:1009F0005001892B81F30E9496002B013C010E943B
:100A000096004B015C0180915D0181112FC00E9415
:100A100028024498C501B401A70196010E944C0523
:100A20007F936F93C301B201A70196010E944C0509
:100A30003F932F933F922F921F9281E18F931F93A9
:100A40000F930E9432071092500110924F016AE0FA
:100A500080E00E945401C8010E949E010E9464022D
:100A60000FB6F894DEBF0FBECDBFB5CF0E942802EF
:100A70001092B300449A66E171E0C8010E942B070E
:100A80001092500110924F016AE080E00E945401E0
:100A9000C8010E949E019FCFA1E21A2EAA1BBB1B78
:100AA000FD010DC0AA1FBB1FEE1FFF1FA217B3073A
:100AB000E407F50720F0A21BB30BE40BF50B661F50
:100AC000771F881F991F1A9469F760957095809514
:100AD00090959B01AC01BD01CF0108950E9479055D
:100AE000A59F900DB49F900DA49F800D911D112482
:100AF0000895A29FB001B39FC001A39F700D811DF7
:100B00001124911DB29F700D811D1124911D089516
:100B10000E949C050C9484060E947D0658F00E9459
:100B2000760640F029F45F3F29F00C946D065111D0
:100B30000C94B8060C9473060E94950668F39923EA
:100B4000B1F3552391F3951B550BBB27AA276217C9
:100B50007307840738F09F5F5F4F220F331F441FD6
:100B6000AA1FA9F335D00E2E3AF0E0E832D091500A
:100B70005040E695001CCAF72BD0FE2F29D0660FF7
:100B8000771F881FBB1F261737074807AB07B0E83A
:100B900009F0BB0B802DBF01FF2793585F4F3AF040
:100BA0009E3F510578F00C946D060C94B8065F3F9B
:100BB000E4F3983ED4F3869577956795B795F795C6
:100BC0009F5FC9F7880F911D9695879597F90895AE
:100BD000E1E0660F771F881FBB1F6217730784074A
:100BE000BA0720F0621B730B840BBA0BEE1F88F759
:100BF000E09508950E9401066894B1110C94B8061E
:100C000008950E949D0688F09F5798F0B92F992764
:100C1000B751B0F0E1F0660F771F881F991F1AF0E7
:100C2000BA95C9F714C0B13091F00E94B706B1E08F
:100C300008950C94B706672F782F8827B85F39F08E
:100C4000B93FCCF3869577956795B395D9F73EF480
:100C500090958095709561957F4F8F4F9F4F089528
:100C6000E89409C097FB3EF4909580957095619546
:100C70007F4F8F4F9F4F9923A9F0F92F96E9BB27FC
:100C80009395F695879577956795B795F111F8CF78
:100C9000FAF4BB0F11F460FF1BC06F5F7F4F8F4FE3
:100CA0009F4F16C0882311F096E911C0772321F0D9
:100CB0009EE8872F762F05C0662371F096E8862F71
:100CC00070E060E02AF09A95660F771F881FDAF7C8
:100CD000880F9695879597F9089597F99F6780E80B
:100CE00070E060E008959FEF80EC089500240A947E
:100CF0001616170618060906089500240A941216F7
:100D00001306140605060895092E0394000C11F429
:100D1000882352F0BB0F40F4BF2B11F460FF04C0D6
:100D20006F5F7F4F8F4F9F4F089557FD9058440F2F
:100D3000551F59F05F3F71F04795880F97FB991F3A
:100D400061F09F3F79F087950895121613061406F7
:100D5000551FF2CF4695F1DF08C016161706180684
:100D6000991FF1CF86957105610508940895E8945F
:100D7000BB2766277727CB0197F908950E94D106F4
:100D80000C9484060E94760638F00E947D0620F0BE
:100D9000952311F00C946D060C94730611240C9499
:100DA000B8060E94950670F3959FC1F3950F50E029
:100DB000551F629FF001729FBB27F00DB11D639F0D
:100DC000AA27F00DB11DAA1F649F6627B00DA11DB3
:100DD000661F829F2227B00DA11D621F739FB00D59
:100DE000A11D621F839FA00D611D221F749F3327C9
:100DF000A00D611D231F849F600D211D822F762F62
:100E00006A2F11249F5750409AF0F1F088234AF03E
:100E1000EE0FFF1FBB1F661F771F881F91505040AA
:100E2000A9F79E3F510580F00C946D060C94B8060E
:100E30005F3FE4F3983ED4F3869577956795B79531
:100E4000F795E7959F5FC1F7FE2B880F911D96954B
:100E5000879597F90895FB01DC0101900D92002020
:100E6000E1F70895AEE0B0E0E8E3F7E00C941C0A87
:100E70000D891E898F89988D26E02C831A8309831A
:100E800097FF02C080E090E801979E838D83AE01BA
:100E9000455E5F4F698D7A8DCE0101960E94620793
:100EA0004D815E8157FD0AC02F8138854217530757
:100EB0000CF49A01020F131FF80110822E96E4E041
:100EC0000C94380AABE0B0E0E8E6F7E00C940E0AC8
:100ED0007C013B018A01FC0117821682838181FF1C
:100EE000C8C1CE0101965C01F7019381F30193FD26
:100EF000859193FF81913F01882309F453C1853285
:100F000039F493FD859193FF81913F01853229F456
:100F1000B70190E00E945209E7CF912C212C312C8F
:100F2000FFE1F31538F08B3211F190F4803209F1C2
:100F3000833229F137FC3CC020ED280F2A3050F5D0
:100F400036FE20C08AE0989E200D1124922E06C005
:100F50008D3291F0803371F7689430F8F30193FD8E
:100F6000859193FF81913F018111DACF21C068946F
:100F700031F8689432F8F2CF689433F8EFCF689480
:100F800034F8ECCFEAE02E9E200D1124222E689436
:100F900035F8E4CF8E3229F436FC04C1689436F873
:100FA000DDCF8C3619F4689437F8D8CF8836B1F293
:100FB000982F9F7D95549330E0F08336A1F18337CD
:100FC000C1F1833509F063C02801F2E04F0E511CD6
:100FD000F801C080D180692D70E036FC02C06FEF4F
:100FE0007FEFC6010E943C094C01689437F88201EA
:100FF0000AC00C5F1F4FFFE3F98388248394912C70
:101000006501E89437F833FE2DC0522C8114910409
:1010100071F5552009F468CFB70180E290E00E9495
:1010200052095A94F6CFF801808189830E5F1F4FD1
:10103000E4CF2801F2E04F0E511CF801C080D180AE
:10104000692D70E036FC02C06FEF7FEFC6010E9491
:1010500047094C018201D5CFB70180E290E00E94A0
:1010600052092A942814190409F0B0F7CECFF601DA
:1010700037FC859137FE81916F01B70190E00E94A6
:10108000520951105A94F1E08F1A9108BFCF84365B
:1010900019F0893609F077C0F80137FE6BC060811E
:1010A0007181828193810C5F1F4FF32DFF763F2E5C
:1010B00097FF09C090958095709561957F4F8F4FF0
:1010C0009F4F689437F82AE030E0A5010E9482091A
:1010D000C82ECA188C2C432C36FE0CC0E89440F85D
:1010E000C91440F434FE05C032FC03C0F32DFE7E6B
:1010F0004F2E892C44FE95C0FE01EC0DF11D808120
:10110000803309F087C0242D297E422E842D8870DB
:10111000582E43FC95C040FE8FC09C2C821418F4BE
:101120002C0C922C981844FE91C0B70180E390E0FB
:101130000E94520942FE09C088E790E041FE02C0C9
:1011400088E590E0B7010E945209C91408F48AC0EA
:10115000CA94D12C9FEFC91AD90ACA0CDB1CF6011C
:1011600082916F01B70190E00E945209AC14BD0456
:10117000B1F74FCF60817181072E000C880B990B5E
:101180000E5F1F4F92CFD32CE894D4F82AE030E0C2
:10119000853739F1232D297FD22E8F3601F148F47E
:1011A0008835A9F0F701868197812B96E2E10C94AE
:1011B0002A0A803749F08837A9F7D4FE02C068941C
:1011C000D2F820E130E00DC06894D4F8F6CF34FEB8
:1011D00003C0822F8660D82E20E132E002C028E0D2
:1011E00030E0F801D7FE0FC0608171818281938168
:1011F0000C5F1F4FA5010E948209C82ECA183D2C02
:10120000E89437F867CF6081718190E080E00E5FED
:101210001F4FF0CF42FC02C0839478CF8394839415
:1012200075CF842D867809F471CFF6CFB70180E2AF
:1012300090E00E94520983948214C0F3512C73CF22
:10124000522C5818821408F46ECFF8CF842D86786B
:1012500009F47BCF8BE241FE80E247FC8DE2B701CF
:1012600090E071CFB70180E390E00E9452099A9418
:101270006CCF8FEF9FEF99CFFC01059061507040CC
:101280000110D8F7809590958E0F9F1F0895FC014F
:101290006150704001900110D8F7809590958E0FA5
:1012A0009F1F08950F931F93CF93DF93182F092F3C
:1012B000EB018B8181FD09C01FEF0FEF812F902F74
:1012C000DF91CF911F910F91089582FF14C02E815D
:1012D0003F818C819D81281739073CF4E881F98191
:1012E000CF0101969983888310838E819F81019617
:1012F0009F838E83E3CFE885F985812F0995892B1C
:10130000A1F3DACFFA01AA27283051F1203181F177
:10131000E8946F936E7F6E5F7F4F8F4F9F4FAF4FFD
:10132000B1E03ED0B4E03CD0670F781F891F9A1F10
:10133000A11D680F791F8A1F911DA11D6A0F711DC4
:10134000811D911DA11D20D009F468943F912AE0D0
:10135000269F11243019305D3193DEF6CF010895B8
:10136000462F4770405D4193B3E00FD0C9F7F6CFE9
:10137000462F4F70405D4A3318F0495D31FD4052B1
:10138000419302D0A9F7EACFB4E0A6959795879547
:1013900077956795BA95C9F7009761057105089526
:1013A0009B01AC010A2E06945795479537952795D2
:1013B000BA95C9F7620F731F841F951FA01D08956A
:1013C000A8E1B0E042E050E00C94EE090196272F2E
:1013D0000E94FD090C94FC09DC01CB01FC01F99988
:1013E000FECF06C0F2BDE1BDF89A319600B40D9271
:1013F00041505040B8F70895262FF999FECF92BD7D
:1014000081BDF89A019700B4021639F01FBA20BDC9
:101410000FB6F894FA9AF99A0FBE08952F923F9258
:101420004F925F926F927F928F929F92AF92BF92F4
:10143000CF92DF92EF92FF920F931F93CF93DF93A0
:10144000CDB7DEB7CA1BDB0B0FB6F894DEBF0FBEFD
:10145000CDBF09942A88398848885F846E847D844A
:101460008C849B84AA84B984C884DF80EE80FD804C
:101470000C811B81AA81B981CE0FD11D0FB6F894C2
:0E148000DEBF0FBECDBFED010895F894FFCF83
:10148E00C80064009001C8000101E8030000202597
:10149E0033642E2564003E3430302E30004E6561AC
:1014AE00723D2000466172203D20004545203130BE
:1014BE00392050726F6A656374004B68616C6564A5
:0E14CE0020416C7A616D656C0025336400006E
:00000001FF
